{"contracts/CasinoContract.sol":{"Casino":{"abi":[{"inputs":[],"stateMutability":"nonpayable","type":"constructor"},{"inputs":[],"name":"CHEST_FEE_PERCENTAGE","outputs":[{"internalType":"uint256","name":"","type":"uint256"}],"stateMutability":"view","type":"function"},{"inputs":[],"name":"MAX_DEPOSIT_AMOUNT","outputs":[{"internalType":"uint256","name":"","type":"uint256"}],"stateMutability":"view","type":"function"},{"inputs":[],"name":"MIN_DEPOSIT_AMOUNT","outputs":[{"internalType":"uint256","name":"","type":"uint256"}],"stateMutability":"view","type":"function"},{"inputs":[],"name":"chest","outputs":[{"internalType":"uint256","name":"","type":"uint256"}],"stateMutability":"view","type":"function"},{"inputs":[],"name":"currentRound","outputs":[{"internalType":"uint256","name":"capacity","type":"uint256"},{"internalType":"uint256","name":"depositedAmount","type":"uint256"},{"internalType":"address","name":"winner","type":"address"},{"internalType":"bool","name":"isActive","type":"bool"}],"stateMutability":"view","type":"function"},{"inputs":[],"name":"deposit","outputs":[],"stateMutability":"payable","type":"function"},{"inputs":[],"name":"owner","outputs":[{"internalType":"address","name":"","type":"address"}],"stateMutability":"view","type":"function"},{"inputs":[{"internalType":"uint256","name":"capacity","type":"uint256"}],"name":"startNewRound","outputs":[],"stateMutability":"nonpayable","type":"function"},{"inputs":[],"name":"withdrawChest","outputs":[],"stateMutability":"nonpayable","type":"function"}],"devdoc":{"kind":"dev","methods":{},"version":1},"evm":{"bytecode":{"linkReferences":{},"object":"608060405234801561001057600080fd5b50600080546001600160a01b031916331781556001556004805460ff60a01b191690556106a5806100426000396000f3fe6080604052600436106100865760003560e01c80636f6a2af9116100595780636f6a2af91461010f5780638a19c8bc146101245780638da5cb5b14610189578063d0e30db0146101c1578063e2168a38146101c957600080fd5b80631ea30fef1461008b5780634615102c146100ba5780634c34a982146100dc57806364026ac0146100f9575b600080fd5b34801561009757600080fd5b506100a7678ac7230489e8000081565b6040519081526020015b60405180910390f35b3480156100c657600080fd5b506100da6100d536600461058f565b6101de565b005b3480156100e857600080fd5b506100a768056bc75e2d6310000081565b34801561010557600080fd5b506100a760015481565b34801561011b57600080fd5b506100da6102e5565b34801561013057600080fd5b506002546003546004546101589291906001600160a01b03811690600160a01b900460ff1684565b6040516100b1949392919093845260208401929092526001600160a01b031660408301521515606082015260800190565b34801561019557600080fd5b506000546101a9906001600160a01b031681565b6040516001600160a01b0390911681526020016100b1565b6100da6103a1565b3480156101d557600080fd5b506100a7601481565b6000546001600160a01b031633146102115760405162461bcd60e51b8152600401610208906105a8565b60405180910390fd5b600454600160a01b900460ff161561026b5760405162461bcd60e51b815260206004820152601d60248201527f43757272656e7420726f756e64206973207374696c6c206163746976650000006044820152606401610208565b600081116102c55760405162461bcd60e51b815260206004820152602160248201527f43617061636974792073686f756c642062652067726561746572207468616e206044820152600360fc1b6064820152608401610208565b6002556000600355600480546001600160a81b031916600160a01b179055565b6000546001600160a01b0316331461030f5760405162461bcd60e51b8152600401610208906105a8565b6000600154116103595760405162461bcd60e51b8152602060048201526015602482015274139bc818da1a5c1cc81a5b881d1a194818da195cdd605a1b6044820152606401610208565b60018054600091829055815460405191926001600160a01b039091169183156108fc0291849190818181858888f1935050505015801561039d573d6000803e3d6000fd5b5050565b600454600160a01b900460ff166103fa5760405162461bcd60e51b815260206004820152601d60248201527f4e6f2061637469766520726f756e6420617420746865206d6f6d656e740000006044820152606401610208565b6002546003541061044d5760405162461bcd60e51b815260206004820152601e60248201527f526f756e6420636170616369747920616c7265616479207265616368656400006044820152606401610208565b678ac7230489e80000341015801561046e575068056bc75e2d631000003411155b6104cf5760405162461bcd60e51b815260206004820152602c60248201527f4465706f73697420616d6f756e742073686f756c64206265206265747765656e60448201526b040dad2dc40c2dcc840dac2f60a31b6064820152608401610208565b34600260010160008282546104e491906105e9565b9091555050600254600354141561058d57600480546001600160a81b0319163317905560006064610516601482610642565b6003546105239190610623565b61052d9190610601565b90506000816002600101546105429190610642565b604051909150339083156108fc029084906000818181858888f19350505050158015610572573d6000803e3d6000fd5b50806001600082825461058591906105e9565b909155505050505b565b6000602082840312156105a157600080fd5b5035919050565b60208082526021908201527f4f6e6c79206f776e65722063616e2063616c6c20746869732066756e6374696f6040820152603760f91b606082015260800190565b600082198211156105fc576105fc610659565b500190565b60008261061e57634e487b7160e01b600052601260045260246000fd5b500490565b600081600019048311821515161561063d5761063d610659565b500290565b60008282101561065457610654610659565b500390565b634e487b7160e01b600052601160045260246000fdfea2646970667358221220e8f63f51ac037f5de40d6ebb6a408090ceb7522cc70096fa0ce11ec13e674c6364736f6c63430008070033","opcodes":"PUSH1 0x80 PUSH1 0x40 MSTORE CALLVALUE DUP1 ISZERO PUSH2 0x10 JUMPI PUSH1 0x0 DUP1 REVERT JUMPDEST POP PUSH1 0x0 DUP1 SLOAD PUSH1 0x1 PUSH1 0x1 PUSH1 0xA0 SHL SUB NOT AND CALLER OR DUP2 SSTORE PUSH1 0x1 SSTORE PUSH1 0x4 DUP1 SLOAD PUSH1 0xFF PUSH1 0xA0 SHL NOT AND SWAP1 SSTORE PUSH2 0x6A5 DUP1 PUSH2 0x42 PUSH1 0x0 CODECOPY PUSH1 0x0 RETURN INVALID PUSH1 0x80 PUSH1 0x40 MSTORE PUSH1 0x4 CALLDATASIZE LT PUSH2 0x86 JUMPI PUSH1 0x0 CALLDATALOAD PUSH1 0xE0 SHR DUP1 PUSH4 0x6F6A2AF9 GT PUSH2 0x59 JUMPI DUP1 PUSH4 0x6F6A2AF9 EQ PUSH2 0x10F JUMPI DUP1 PUSH4 0x8A19C8BC EQ PUSH2 0x124 JUMPI DUP1 PUSH4 0x8DA5CB5B EQ PUSH2 0x189 JUMPI DUP1 PUSH4 0xD0E30DB0 EQ PUSH2 0x1C1 JUMPI DUP1 PUSH4 0xE2168A38 EQ PUSH2 0x1C9 JUMPI PUSH1 0x0 DUP1 REVERT JUMPDEST DUP1 PUSH4 0x1EA30FEF EQ PUSH2 0x8B JUMPI DUP1 PUSH4 0x4615102C EQ PUSH2 0xBA JUMPI DUP1 PUSH4 0x4C34A982 EQ PUSH2 0xDC JUMPI DUP1 PUSH4 0x64026AC0 EQ PUSH2 0xF9 JUMPI JUMPDEST PUSH1 0x0 DUP1 REVERT JUMPDEST CALLVALUE DUP1 ISZERO PUSH2 0x97 JUMPI PUSH1 0x0 DUP1 REVERT JUMPDEST POP PUSH2 0xA7 PUSH8 0x8AC7230489E80000 DUP2 JUMP JUMPDEST PUSH1 0x40 MLOAD SWAP1 DUP2 MSTORE PUSH1 0x20 ADD JUMPDEST PUSH1 0x40 MLOAD DUP1 SWAP2 SUB SWAP1 RETURN JUMPDEST CALLVALUE DUP1 ISZERO PUSH2 0xC6 JUMPI PUSH1 0x0 DUP1 REVERT JUMPDEST POP PUSH2 0xDA PUSH2 0xD5 CALLDATASIZE PUSH1 0x4 PUSH2 0x58F JUMP JUMPDEST PUSH2 0x1DE JUMP JUMPDEST STOP JUMPDEST CALLVALUE DUP1 ISZERO PUSH2 0xE8 JUMPI PUSH1 0x0 DUP1 REVERT JUMPDEST POP PUSH2 0xA7 PUSH9 0x56BC75E2D63100000 DUP2 JUMP JUMPDEST CALLVALUE DUP1 ISZERO PUSH2 0x105 JUMPI PUSH1 0x0 DUP1 REVERT JUMPDEST POP PUSH2 0xA7 PUSH1 0x1 SLOAD DUP2 JUMP JUMPDEST CALLVALUE DUP1 ISZERO PUSH2 0x11B JUMPI PUSH1 0x0 DUP1 REVERT JUMPDEST POP PUSH2 0xDA PUSH2 0x2E5 JUMP JUMPDEST CALLVALUE DUP1 ISZERO PUSH2 0x130 JUMPI PUSH1 0x0 DUP1 REVERT JUMPDEST POP PUSH1 0x2 SLOAD PUSH1 0x3 SLOAD PUSH1 0x4 SLOAD PUSH2 0x158 SWAP3 SWAP2 SWAP1 PUSH1 0x1 PUSH1 0x1 PUSH1 0xA0 SHL SUB DUP2 AND SWAP1 PUSH1 0x1 PUSH1 0xA0 SHL SWAP1 DIV PUSH1 0xFF AND DUP5 JUMP JUMPDEST PUSH1 0x40 MLOAD PUSH2 0xB1 SWAP5 SWAP4 SWAP3 SWAP2 SWAP1 SWAP4 DUP5 MSTORE PUSH1 0x20 DUP5 ADD SWAP3 SWAP1 SWAP3 MSTORE PUSH1 0x1 PUSH1 0x1 PUSH1 0xA0 SHL SUB AND PUSH1 0x40 DUP4 ADD MSTORE ISZERO ISZERO PUSH1 0x60 DUP3 ADD MSTORE PUSH1 0x80 ADD SWAP1 JUMP JUMPDEST CALLVALUE DUP1 ISZERO PUSH2 0x195 JUMPI PUSH1 0x0 DUP1 REVERT JUMPDEST POP PUSH1 0x0 SLOAD PUSH2 0x1A9 SWAP1 PUSH1 0x1 PUSH1 0x1 PUSH1 0xA0 SHL SUB AND DUP2 JUMP JUMPDEST PUSH1 0x40 MLOAD PUSH1 0x1 PUSH1 0x1 PUSH1 0xA0 SHL SUB SWAP1 SWAP2 AND DUP2 MSTORE PUSH1 0x20 ADD PUSH2 0xB1 JUMP JUMPDEST PUSH2 0xDA PUSH2 0x3A1 JUMP JUMPDEST CALLVALUE DUP1 ISZERO PUSH2 0x1D5 JUMPI PUSH1 0x0 DUP1 REVERT JUMPDEST POP PUSH2 0xA7 PUSH1 0x14 DUP2 JUMP JUMPDEST PUSH1 0x0 SLOAD PUSH1 0x1 PUSH1 0x1 PUSH1 0xA0 SHL SUB AND CALLER EQ PUSH2 0x211 JUMPI PUSH1 0x40 MLOAD PUSH3 0x461BCD PUSH1 0xE5 SHL DUP2 MSTORE PUSH1 0x4 ADD PUSH2 0x208 SWAP1 PUSH2 0x5A8 JUMP JUMPDEST PUSH1 0x40 MLOAD DUP1 SWAP2 SUB SWAP1 REVERT JUMPDEST PUSH1 0x4 SLOAD PUSH1 0x1 PUSH1 0xA0 SHL SWAP1 DIV PUSH1 0xFF AND ISZERO PUSH2 0x26B JUMPI PUSH1 0x40 MLOAD PUSH3 0x461BCD PUSH1 0xE5 SHL DUP2 MSTORE PUSH1 0x20 PUSH1 0x4 DUP3 ADD MSTORE PUSH1 0x1D PUSH1 0x24 DUP3 ADD MSTORE PUSH32 0x43757272656E7420726F756E64206973207374696C6C20616374697665000000 PUSH1 0x44 DUP3 ADD MSTORE PUSH1 0x64 ADD PUSH2 0x208 JUMP JUMPDEST PUSH1 0x0 DUP2 GT PUSH2 0x2C5 JUMPI PUSH1 0x40 MLOAD PUSH3 0x461BCD PUSH1 0xE5 SHL DUP2 MSTORE PUSH1 0x20 PUSH1 0x4 DUP3 ADD MSTORE PUSH1 0x21 PUSH1 0x24 DUP3 ADD MSTORE PUSH32 0x43617061636974792073686F756C642062652067726561746572207468616E20 PUSH1 0x44 DUP3 ADD MSTORE PUSH1 0x3 PUSH1 0xFC SHL PUSH1 0x64 DUP3 ADD MSTORE PUSH1 0x84 ADD PUSH2 0x208 JUMP JUMPDEST PUSH1 0x2 SSTORE PUSH1 0x0 PUSH1 0x3 SSTORE PUSH1 0x4 DUP1 SLOAD PUSH1 0x1 PUSH1 0x1 PUSH1 0xA8 SHL SUB NOT AND PUSH1 0x1 PUSH1 0xA0 SHL OR SWAP1 SSTORE JUMP JUMPDEST PUSH1 0x0 SLOAD PUSH1 0x1 PUSH1 0x1 PUSH1 0xA0 SHL SUB AND CALLER EQ PUSH2 0x30F JUMPI PUSH1 0x40 MLOAD PUSH3 0x461BCD PUSH1 0xE5 SHL DUP2 MSTORE PUSH1 0x4 ADD PUSH2 0x208 SWAP1 PUSH2 0x5A8 JUMP JUMPDEST PUSH1 0x0 PUSH1 0x1 SLOAD GT PUSH2 0x359 JUMPI PUSH1 0x40 MLOAD PUSH3 0x461BCD PUSH1 0xE5 SHL DUP2 MSTORE PUSH1 0x20 PUSH1 0x4 DUP3 ADD MSTORE PUSH1 0x15 PUSH1 0x24 DUP3 ADD MSTORE PUSH21 0x139BC818DA1A5C1CC81A5B881D1A194818DA195CDD PUSH1 0x5A SHL PUSH1 0x44 DUP3 ADD MSTORE PUSH1 0x64 ADD PUSH2 0x208 JUMP JUMPDEST PUSH1 0x1 DUP1 SLOAD PUSH1 0x0 SWAP2 DUP3 SWAP1 SSTORE DUP2 SLOAD PUSH1 0x40 MLOAD SWAP2 SWAP3 PUSH1 0x1 PUSH1 0x1 PUSH1 0xA0 SHL SUB SWAP1 SWAP2 AND SWAP2 DUP4 ISZERO PUSH2 0x8FC MUL SWAP2 DUP5 SWAP2 SWAP1 DUP2 DUP2 DUP2 DUP6 DUP9 DUP9 CALL SWAP4 POP POP POP POP ISZERO DUP1 ISZERO PUSH2 0x39D JUMPI RETURNDATASIZE PUSH1 0x0 DUP1 RETURNDATACOPY RETURNDATASIZE PUSH1 0x0 REVERT JUMPDEST POP POP JUMP JUMPDEST PUSH1 0x4 SLOAD PUSH1 0x1 PUSH1 0xA0 SHL SWAP1 DIV PUSH1 0xFF AND PUSH2 0x3FA JUMPI PUSH1 0x40 MLOAD PUSH3 0x461BCD PUSH1 0xE5 SHL DUP2 MSTORE PUSH1 0x20 PUSH1 0x4 DUP3 ADD MSTORE PUSH1 0x1D PUSH1 0x24 DUP3 ADD MSTORE PUSH32 0x4E6F2061637469766520726F756E6420617420746865206D6F6D656E74000000 PUSH1 0x44 DUP3 ADD MSTORE PUSH1 0x64 ADD PUSH2 0x208 JUMP JUMPDEST PUSH1 0x2 SLOAD PUSH1 0x3 SLOAD LT PUSH2 0x44D JUMPI PUSH1 0x40 MLOAD PUSH3 0x461BCD PUSH1 0xE5 SHL DUP2 MSTORE PUSH1 0x20 PUSH1 0x4 DUP3 ADD MSTORE PUSH1 0x1E PUSH1 0x24 DUP3 ADD MSTORE PUSH32 0x526F756E6420636170616369747920616C726561647920726561636865640000 PUSH1 0x44 DUP3 ADD MSTORE PUSH1 0x64 ADD PUSH2 0x208 JUMP JUMPDEST PUSH8 0x8AC7230489E80000 CALLVALUE LT ISZERO DUP1 ISZERO PUSH2 0x46E JUMPI POP PUSH9 0x56BC75E2D63100000 CALLVALUE GT ISZERO JUMPDEST PUSH2 0x4CF JUMPI PUSH1 0x40 MLOAD PUSH3 0x461BCD PUSH1 0xE5 SHL DUP2 MSTORE PUSH1 0x20 PUSH1 0x4 DUP3 ADD MSTORE PUSH1 0x2C PUSH1 0x24 DUP3 ADD MSTORE PUSH32 0x4465706F73697420616D6F756E742073686F756C64206265206265747765656E PUSH1 0x44 DUP3 ADD MSTORE PUSH12 0x40DAD2DC40C2DCC840DAC2F PUSH1 0xA3 SHL PUSH1 0x64 DUP3 ADD MSTORE PUSH1 0x84 ADD PUSH2 0x208 JUMP JUMPDEST CALLVALUE PUSH1 0x2 PUSH1 0x1 ADD PUSH1 0x0 DUP3 DUP3 SLOAD PUSH2 0x4E4 SWAP2 SWAP1 PUSH2 0x5E9 JUMP JUMPDEST SWAP1 SWAP2 SSTORE POP POP PUSH1 0x2 SLOAD PUSH1 0x3 SLOAD EQ ISZERO PUSH2 0x58D JUMPI PUSH1 0x4 DUP1 SLOAD PUSH1 0x1 PUSH1 0x1 PUSH1 0xA8 SHL SUB NOT AND CALLER OR SWAP1 SSTORE PUSH1 0x0 PUSH1 0x64 PUSH2 0x516 PUSH1 0x14 DUP3 PUSH2 0x642 JUMP JUMPDEST PUSH1 0x3 SLOAD PUSH2 0x523 SWAP2 SWAP1 PUSH2 0x623 JUMP JUMPDEST PUSH2 0x52D SWAP2 SWAP1 PUSH2 0x601 JUMP JUMPDEST SWAP1 POP PUSH1 0x0 DUP2 PUSH1 0x2 PUSH1 0x1 ADD SLOAD PUSH2 0x542 SWAP2 SWAP1 PUSH2 0x642 JUMP JUMPDEST PUSH1 0x40 MLOAD SWAP1 SWAP2 POP CALLER SWAP1 DUP4 ISZERO PUSH2 0x8FC MUL SWAP1 DUP5 SWAP1 PUSH1 0x0 DUP2 DUP2 DUP2 DUP6 DUP9 DUP9 CALL SWAP4 POP POP POP POP ISZERO DUP1 ISZERO PUSH2 0x572 JUMPI RETURNDATASIZE PUSH1 0x0 DUP1 RETURNDATACOPY RETURNDATASIZE PUSH1 0x0 REVERT JUMPDEST POP DUP1 PUSH1 0x1 PUSH1 0x0 DUP3 DUP3 SLOAD PUSH2 0x585 SWAP2 SWAP1 PUSH2 0x5E9 JUMP JUMPDEST SWAP1 SWAP2 SSTORE POP POP POP POP JUMPDEST JUMP JUMPDEST PUSH1 0x0 PUSH1 0x20 DUP3 DUP5 SUB SLT ISZERO PUSH2 0x5A1 JUMPI PUSH1 0x0 DUP1 REVERT JUMPDEST POP CALLDATALOAD SWAP2 SWAP1 POP JUMP JUMPDEST PUSH1 0x20 DUP1 DUP3 MSTORE PUSH1 0x21 SWAP1 DUP3 ADD MSTORE PUSH32 0x4F6E6C79206F776E65722063616E2063616C6C20746869732066756E6374696F PUSH1 0x40 DUP3 ADD MSTORE PUSH1 0x37 PUSH1 0xF9 SHL PUSH1 0x60 DUP3 ADD MSTORE PUSH1 0x80 ADD SWAP1 JUMP JUMPDEST PUSH1 0x0 DUP3 NOT DUP3 GT ISZERO PUSH2 0x5FC JUMPI PUSH2 0x5FC PUSH2 0x659 JUMP JUMPDEST POP ADD SWAP1 JUMP JUMPDEST PUSH1 0x0 DUP3 PUSH2 0x61E JUMPI PUSH4 0x4E487B71 PUSH1 0xE0 SHL PUSH1 0x0 MSTORE PUSH1 0x12 PUSH1 0x4 MSTORE PUSH1 0x24 PUSH1 0x0 REVERT JUMPDEST POP DIV SWAP1 JUMP JUMPDEST PUSH1 0x0 DUP2 PUSH1 0x0 NOT DIV DUP4 GT DUP3 ISZERO ISZERO AND ISZERO PUSH2 0x63D JUMPI PUSH2 0x63D PUSH2 0x659 JUMP JUMPDEST POP MUL SWAP1 JUMP JUMPDEST PUSH1 0x0 DUP3 DUP3 LT ISZERO PUSH2 0x654 JUMPI PUSH2 0x654 PUSH2 0x659 JUMP JUMPDEST POP SUB SWAP1 JUMP JUMPDEST PUSH4 0x4E487B71 PUSH1 0xE0 SHL PUSH1 0x0 MSTORE PUSH1 0x11 PUSH1 0x4 MSTORE PUSH1 0x24 PUSH1 0x0 REVERT INVALID LOG2 PUSH5 0x6970667358 0x22 SLT KECCAK256 0xE8 0xF6 EXTCODEHASH MLOAD 0xAC SUB PUSH32 0x5DE40D6EBB6A408090CEB7522CC70096FA0CE11EC13E674C6364736F6C634300 ADDMOD SMOD STOP CALLER "},"gasEstimates":{"creation":{"codeDepositCost":"340200","executionCost":"53842","totalCost":"394042"},"external":{"CHEST_FEE_PERCENTAGE()":"272","MAX_DEPOSIT_AMOUNT()":"229","MIN_DEPOSIT_AMOUNT()":"185","chest()":"2351","currentRound()":"6675","deposit()":"infinite","owner()":"2381","startNewRound(uint256)":"55901","withdrawChest()":"infinite"}},"methodIdentifiers":{"CHEST_FEE_PERCENTAGE()":"e2168a38","MAX_DEPOSIT_AMOUNT()":"4c34a982","MIN_DEPOSIT_AMOUNT()":"1ea30fef","chest()":"64026ac0","currentRound()":"8a19c8bc","deposit()":"d0e30db0","owner()":"8da5cb5b","startNewRound(uint256)":"4615102c","withdrawChest()":"6f6a2af9"}},"storageLayout":{"storage":[{"astId":828,"contract":"contracts/CasinoContract.sol:Casino","label":"owner","offset":0,"slot":"0","type":"t_address"},{"astId":830,"contract":"contracts/CasinoContract.sol:Casino","label":"chest","offset":0,"slot":"1","type":"t_uint256"},{"astId":851,"contract":"contracts/CasinoContract.sol:Casino","label":"currentRound","offset":0,"slot":"2","type":"t_struct(Round)848_storage"}],"types":{"t_address":{"encoding":"inplace","label":"address","numberOfBytes":"20"},"t_bool":{"encoding":"inplace","label":"bool","numberOfBytes":"1"},"t_struct(Round)848_storage":{"encoding":"inplace","label":"struct Casino.Round","members":[{"astId":841,"contract":"contracts/CasinoContract.sol:Casino","label":"capacity","offset":0,"slot":"0","type":"t_uint256"},{"astId":843,"contract":"contracts/CasinoContract.sol:Casino","label":"depositedAmount","offset":0,"slot":"1","type":"t_uint256"},{"astId":845,"contract":"contracts/CasinoContract.sol:Casino","label":"winner","offset":0,"slot":"2","type":"t_address"},{"astId":847,"contract":"contracts/CasinoContract.sol:Casino","label":"isActive","offset":20,"slot":"2","type":"t_bool"}],"numberOfBytes":"96"},"t_uint256":{"encoding":"inplace","label":"uint256","numberOfBytes":"32"}}},"userdoc":{"kind":"user","methods":{},"version":1}}}}