{
  "_format": "hh-sol-artifact-1",
  "contractName": "Chip",
  "sourceName": "contracts/ChipContract.sol",
  "abi": [
    {
      "inputs": [
        {
          "internalType": "uint256",
          "name": "_initialSupply",
          "type": "uint256"
        },
        {
          "internalType": "uint256",
          "name": "_initialRate",
          "type": "uint256"
        }
      ],
      "stateMutability": "nonpayable",
      "type": "constructor"
    },
    {
      "anonymous": false,
      "inputs": [
        {
          "indexed": true,
          "internalType": "address",
          "name": "owner",
          "type": "address"
        },
        {
          "indexed": true,
          "internalType": "address",
          "name": "spender",
          "type": "address"
        },
        {
          "indexed": false,
          "internalType": "uint256",
          "name": "value",
          "type": "uint256"
        }
      ],
      "name": "Approval",
      "type": "event"
    },
    {
      "anonymous": false,
      "inputs": [
        {
          "indexed": true,
          "internalType": "address",
          "name": "previousOwner",
          "type": "address"
        },
        {
          "indexed": true,
          "internalType": "address",
          "name": "newOwner",
          "type": "address"
        }
      ],
      "name": "OwnershipTransferred",
      "type": "event"
    },
    {
      "anonymous": false,
      "inputs": [
        {
          "indexed": true,
          "internalType": "address",
          "name": "from",
          "type": "address"
        },
        {
          "indexed": true,
          "internalType": "address",
          "name": "to",
          "type": "address"
        },
        {
          "indexed": false,
          "internalType": "uint256",
          "name": "value",
          "type": "uint256"
        }
      ],
      "name": "Transfer",
      "type": "event"
    },
    {
      "anonymous": false,
      "inputs": [
        {
          "indexed": false,
          "internalType": "address",
          "name": "casino",
          "type": "address"
        }
      ],
      "name": "newCasino",
      "type": "event"
    },
    {
      "anonymous": false,
      "inputs": [
        {
          "indexed": false,
          "internalType": "uint256",
          "name": "fee",
          "type": "uint256"
        }
      ],
      "name": "newFee",
      "type": "event"
    },
    {
      "anonymous": false,
      "inputs": [
        {
          "indexed": false,
          "internalType": "uint256",
          "name": "rate",
          "type": "uint256"
        }
      ],
      "name": "newRate",
      "type": "event"
    },
    {
      "anonymous": false,
      "inputs": [
        {
          "indexed": false,
          "internalType": "address",
          "name": "treasury",
          "type": "address"
        }
      ],
      "name": "newTreasury",
      "type": "event"
    },
    {
      "anonymous": false,
      "inputs": [
        {
          "indexed": false,
          "internalType": "uint256",
          "name": "amount",
          "type": "uint256"
        }
      ],
      "name": "withdraw",
      "type": "event"
    },
    {
      "inputs": [
        {
          "internalType": "address",
          "name": "owner",
          "type": "address"
        },
        {
          "internalType": "address",
          "name": "spender",
          "type": "address"
        }
      ],
      "name": "allowance",
      "outputs": [
        {
          "internalType": "uint256",
          "name": "",
          "type": "uint256"
        }
      ],
      "stateMutability": "view",
      "type": "function"
    },
    {
      "inputs": [
        {
          "internalType": "address",
          "name": "spender",
          "type": "address"
        },
        {
          "internalType": "uint256",
          "name": "amount",
          "type": "uint256"
        }
      ],
      "name": "approve",
      "outputs": [
        {
          "internalType": "bool",
          "name": "",
          "type": "bool"
        }
      ],
      "stateMutability": "nonpayable",
      "type": "function"
    },
    {
      "inputs": [
        {
          "internalType": "address",
          "name": "account",
          "type": "address"
        }
      ],
      "name": "balanceOf",
      "outputs": [
        {
          "internalType": "uint256",
          "name": "",
          "type": "uint256"
        }
      ],
      "stateMutability": "view",
      "type": "function"
    },
    {
      "inputs": [],
      "name": "casino",
      "outputs": [
        {
          "internalType": "address",
          "name": "",
          "type": "address"
        }
      ],
      "stateMutability": "view",
      "type": "function"
    },
    {
      "inputs": [],
      "name": "decimals",
      "outputs": [
        {
          "internalType": "uint8",
          "name": "",
          "type": "uint8"
        }
      ],
      "stateMutability": "view",
      "type": "function"
    },
    {
      "inputs": [
        {
          "internalType": "address",
          "name": "spender",
          "type": "address"
        },
        {
          "internalType": "uint256",
          "name": "subtractedValue",
          "type": "uint256"
        }
      ],
      "name": "decreaseAllowance",
      "outputs": [
        {
          "internalType": "bool",
          "name": "",
          "type": "bool"
        }
      ],
      "stateMutability": "nonpayable",
      "type": "function"
    },
    {
      "inputs": [],
      "name": "fee",
      "outputs": [
        {
          "internalType": "uint256",
          "name": "",
          "type": "uint256"
        }
      ],
      "stateMutability": "view",
      "type": "function"
    },
    {
      "inputs": [
        {
          "internalType": "address",
          "name": "spender",
          "type": "address"
        },
        {
          "internalType": "uint256",
          "name": "addedValue",
          "type": "uint256"
        }
      ],
      "name": "increaseAllowance",
      "outputs": [
        {
          "internalType": "bool",
          "name": "",
          "type": "bool"
        }
      ],
      "stateMutability": "nonpayable",
      "type": "function"
    },
    {
      "inputs": [
        {
          "internalType": "address",
          "name": "_address",
          "type": "address"
        }
      ],
      "name": "mint",
      "outputs": [],
      "stateMutability": "payable",
      "type": "function"
    },
    {
      "inputs": [],
      "name": "name",
      "outputs": [
        {
          "internalType": "string",
          "name": "",
          "type": "string"
        }
      ],
      "stateMutability": "view",
      "type": "function"
    },
    {
      "inputs": [],
      "name": "owner",
      "outputs": [
        {
          "internalType": "address",
          "name": "",
          "type": "address"
        }
      ],
      "stateMutability": "view",
      "type": "function"
    },
    {
      "inputs": [],
      "name": "rate",
      "outputs": [
        {
          "internalType": "uint256",
          "name": "",
          "type": "uint256"
        }
      ],
      "stateMutability": "view",
      "type": "function"
    },
    {
      "inputs": [],
      "name": "renounceOwnership",
      "outputs": [],
      "stateMutability": "nonpayable",
      "type": "function"
    },
    {
      "inputs": [
        {
          "internalType": "address",
          "name": "_newCasino",
          "type": "address"
        }
      ],
      "name": "setCasino",
      "outputs": [],
      "stateMutability": "nonpayable",
      "type": "function"
    },
    {
      "inputs": [
        {
          "internalType": "uint256",
          "name": "_newFee",
          "type": "uint256"
        }
      ],
      "name": "setFee",
      "outputs": [],
      "stateMutability": "nonpayable",
      "type": "function"
    },
    {
      "inputs": [
        {
          "internalType": "uint256",
          "name": "_newRate",
          "type": "uint256"
        }
      ],
      "name": "setRate",
      "outputs": [],
      "stateMutability": "nonpayable",
      "type": "function"
    },
    {
      "inputs": [
        {
          "internalType": "address",
          "name": "_newTreasury",
          "type": "address"
        }
      ],
      "name": "setTreasury",
      "outputs": [],
      "stateMutability": "nonpayable",
      "type": "function"
    },
    {
      "inputs": [],
      "name": "symbol",
      "outputs": [
        {
          "internalType": "string",
          "name": "",
          "type": "string"
        }
      ],
      "stateMutability": "view",
      "type": "function"
    },
    {
      "inputs": [],
      "name": "totalSupply",
      "outputs": [
        {
          "internalType": "uint256",
          "name": "",
          "type": "uint256"
        }
      ],
      "stateMutability": "view",
      "type": "function"
    },
    {
      "inputs": [
        {
          "internalType": "address",
          "name": "_to",
          "type": "address"
        },
        {
          "internalType": "uint256",
          "name": "_amount",
          "type": "uint256"
        }
      ],
      "name": "transfer",
      "outputs": [
        {
          "internalType": "bool",
          "name": "",
          "type": "bool"
        }
      ],
      "stateMutability": "nonpayable",
      "type": "function"
    },
    {
      "inputs": [
        {
          "internalType": "address",
          "name": "_from",
          "type": "address"
        },
        {
          "internalType": "address",
          "name": "_to",
          "type": "address"
        },
        {
          "internalType": "uint256",
          "name": "_amount",
          "type": "uint256"
        }
      ],
      "name": "transferFrom",
      "outputs": [
        {
          "internalType": "bool",
          "name": "",
          "type": "bool"
        }
      ],
      "stateMutability": "nonpayable",
      "type": "function"
    },
    {
      "inputs": [
        {
          "internalType": "address",
          "name": "newOwner",
          "type": "address"
        }
      ],
      "name": "transferOwnership",
      "outputs": [],
      "stateMutability": "nonpayable",
      "type": "function"
    },
    {
      "inputs": [],
      "name": "treasury",
      "outputs": [
        {
          "internalType": "address",
          "name": "",
          "type": "address"
        }
      ],
      "stateMutability": "view",
      "type": "function"
    },
    {
      "inputs": [],
      "name": "withdrawChip",
      "outputs": [],
      "stateMutability": "nonpayable",
      "type": "function"
    }
  ],
  "bytecode": "0x60806040523480156200001157600080fd5b506040516200158238038062001582833981016040819052620000349162000290565b604080518082018252600a81526921b434b8103a37b5b2b760b11b6020808301918252835180850190945260048452630436869760e41b9084015281519192916200008291600391620001ea565b50805162000098906004906020840190620001ea565b505050620000b5620000af620000ce60201b60201c565b620000d2565b6006819055620000c6338362000124565b505062000319565b3390565b600580546001600160a01b038381166001600160a01b0319831681179093556040519116919082907f8be0079c531659141344cd1fd0a4f28419497f9722a3daafe3b4186f6b6457e090600090a35050565b6001600160a01b0382166200017f5760405162461bcd60e51b815260206004820152601f60248201527f45524332303a206d696e7420746f20746865207a65726f206164647265737300604482015260640160405180910390fd5b8060026000828254620001939190620002b5565b90915550506001600160a01b038216600081815260208181526040808320805486019055518481527fddf252ad1be2c89b69c2b068fc378daa952ba7f163c4a11628f55a4df523b3ef910160405180910390a35050565b828054620001f890620002dc565b90600052602060002090601f0160209004810192826200021c576000855562000267565b82601f106200023757805160ff191683800117855562000267565b8280016001018555821562000267579182015b82811115620002675782518255916020019190600101906200024a565b506200027592915062000279565b5090565b5b808211156200027557600081556001016200027a565b60008060408385031215620002a457600080fd5b505080516020909101519092909150565b60008219821115620002d757634e487b7160e01b600052601160045260246000fd5b500190565b600181811c90821680620002f157607f821691505b602082108114156200031357634e487b7160e01b600052602260045260246000fd5b50919050565b61125980620003296000396000f3fe60806040526004361061014b5760003560e01c8063715018a6116100b6578063aabf0ca31161006f578063aabf0ca3146103a7578063d7b9cc24146103bc578063dd62ed3e146103dc578063ddca3f43146103fc578063f0f4426014610412578063f2fde38b1461043257600080fd5b8063715018a6146102ff5780638da5cb5b146103145780639403e8dd1461033257806395d89b4114610352578063a457c2d714610367578063a9059cbb1461038757600080fd5b806334fcf4371161010857806334fcf4371461021c578063395093511461023e57806361d027b31461025e57806369fe0e2d146102965780636a627842146102b657806370a08231146102c957600080fd5b806306fdde0314610150578063095ea7b31461017b57806318160ddd146101ab57806323b872dd146101ca5780632c4e722e146101ea578063313ce56714610200575b600080fd5b34801561015c57600080fd5b50610165610452565b6040516101729190611124565b60405180910390f35b34801561018757600080fd5b5061019b6101963660046110e1565b6104e4565b6040519015158152602001610172565b3480156101b757600080fd5b506002545b604051908152602001610172565b3480156101d657600080fd5b5061019b6101e53660046110a5565b6104fc565b3480156101f657600080fd5b506101bc60065481565b34801561020c57600080fd5b5060405160128152602001610172565b34801561022857600080fd5b5061023c61023736600461110b565b610551565b005b34801561024a57600080fd5b5061019b6102593660046110e1565b6105dc565b34801561026a57600080fd5b5060085461027e906001600160a01b031681565b6040516001600160a01b039091168152602001610172565b3480156102a257600080fd5b5061023c6102b136600461110b565b6105fe565b61023c6102c4366004611050565b61067c565b3480156102d557600080fd5b506101bc6102e4366004611050565b6001600160a01b031660009081526020819052604090205490565b34801561030b57600080fd5b5061023c6106d8565b34801561032057600080fd5b506005546001600160a01b031661027e565b34801561033e57600080fd5b5060095461027e906001600160a01b031681565b34801561035e57600080fd5b506101656106ec565b34801561037357600080fd5b5061019b6103823660046110e1565b6106fb565b34801561039357600080fd5b5061019b6103a23660046110e1565b610781565b3480156103b357600080fd5b5061023c6107b3565b3480156103c857600080fd5b5061023c6103d7366004611050565b61086d565b3480156103e857600080fd5b506101bc6103f7366004611072565b61090f565b34801561040857600080fd5b506101bc60075481565b34801561041e57600080fd5b5061023c61042d366004611050565b61093a565b34801561043e57600080fd5b5061023c61044d366004611050565b6109e6565b606060038054610461906111d2565b80601f016020809104026020016040519081016040528092919081815260200182805461048d906111d2565b80156104da5780601f106104af576101008083540402835291602001916104da565b820191906000526020600020905b8154815290600101906020018083116104bd57829003601f168201915b5050505050905090565b6000336104f2818585610a5c565b5060019392505050565b6009546000906001600160a01b03163314610529576105298433600754856105249190611179565b610b81565b6008546007546105469186916001600160a01b0390911690610bfb565b6104f2848484610bfb565b610559610d9f565b806105a05760405162461bcd60e51b815260206004820152601260248201527106e6577526174652063616e277420626520360741b60448201526064015b60405180910390fd5b60068190556040518181527f1ff19b0379aac19e75dd9c81b227c7e2c408579820be4c705d51d3600fa0d376906020015b60405180910390a150565b6000336104f28185856105ef838361090f565b6105f99190611179565b610a5c565b610606610d9f565b806106475760405162461bcd60e51b815260206004820152601160248201527006e65774665652063616e2774206265203607c1b6044820152606401610597565b60078190556040518181527fba1ad43889972615394820100e320f046b47536406dbb05f2add9abae8816b58906020016105d1565b346106be5760405162461bcd60e51b815260206004820152601260248201527104d6573736167652076616c756520697320360741b6044820152606401610597565b6106d581600654346106d09190611191565b610df9565b50565b6106e0610d9f565b6106ea6000610eb8565b565b606060048054610461906111d2565b60003381610709828661090f565b9050838110156107695760405162461bcd60e51b815260206004820152602560248201527f45524332303a2064656372656173656420616c6c6f77616e63652062656c6f77604482015264207a65726f60d81b6064820152608401610597565b6107768286868403610a5c565b506001949350505050565b60085460075460009161079f9133916001600160a01b031690610bfb565b6107aa338484610bfb565b50600192915050565b6107bb610d9f565b6008546001600160a01b0316600081815260208190526040902054906107e19082610f0a565b6005546001600160a01b03166001600160a01b03166108fc6006548361080791906111b3565b6040518115909202916000818181858888f1935050505015801561082f573d6000803e3d6000fd5b507f2e1a7d4d13322e7b96f9a57413e1525c250fb7a9021cf91d1540d5b69f16a49f6006548261085f91906111b3565b6040519081526020016105d1565b610875610d9f565b6001600160a01b0381166108c15760405162461bcd60e51b81526020600482015260136024820152725f6e6577436173696e6f2063616e277420626560681b6044820152606401610597565b600980546001600160a01b0319166001600160a01b0383169081179091556040519081527ffb0363ba6397d98aac639ef3f7f60f00e64693385b2282995e5f9411b35063f3906020016105d1565b6001600160a01b03918216600090815260016020908152604080832093909416825291909152205490565b610942610d9f565b6001600160a01b0381166109985760405162461bcd60e51b815260206004820152601b60248201527f5f6e657754726561737572792063616e277420626520656d70747900000000006044820152606401610597565b600880546001600160a01b0319166001600160a01b0383169081179091556040519081527f9718b5244d3f4d64362bafb32dbe20bedaaca6ba196703cbd27f8256959f2786906020016105d1565b6109ee610d9f565b6001600160a01b038116610a535760405162461bcd60e51b815260206004820152602660248201527f4f776e61626c653a206e6577206f776e657220697320746865207a65726f206160448201526564647265737360d01b6064820152608401610597565b6106d581610eb8565b6001600160a01b038316610abe5760405162461bcd60e51b8152602060048201526024808201527f45524332303a20617070726f76652066726f6d20746865207a65726f206164646044820152637265737360e01b6064820152608401610597565b6001600160a01b038216610b1f5760405162461bcd60e51b815260206004820152602260248201527f45524332303a20617070726f766520746f20746865207a65726f206164647265604482015261737360f01b6064820152608401610597565b6001600160a01b0383811660008181526001602090815260408083209487168084529482529182902085905590518481527f8c5be1e5ebec7d5bd14f71427d1e84f3dd0314c0f7b2291e5b200ac8c7c3b92591015b60405180910390a3505050565b6000610b8d848461090f565b90506000198114610bf55781811015610be85760405162461bcd60e51b815260206004820152601d60248201527f45524332303a20696e73756666696369656e7420616c6c6f77616e63650000006044820152606401610597565b610bf58484848403610a5c565b50505050565b6001600160a01b038316610c5f5760405162461bcd60e51b815260206004820152602560248201527f45524332303a207472616e736665722066726f6d20746865207a65726f206164604482015264647265737360d81b6064820152608401610597565b6001600160a01b038216610cc15760405162461bcd60e51b815260206004820152602360248201527f45524332303a207472616e7366657220746f20746865207a65726f206164647260448201526265737360e81b6064820152608401610597565b6001600160a01b03831660009081526020819052604090205481811015610d395760405162461bcd60e51b815260206004820152602660248201527f45524332303a207472616e7366657220616d6f756e7420657863656564732062604482015265616c616e636560d01b6064820152608401610597565b6001600160a01b03848116600081815260208181526040808320878703905593871680835291849020805487019055925185815290927fddf252ad1be2c89b69c2b068fc378daa952ba7f163c4a11628f55a4df523b3ef910160405180910390a3610bf5565b6005546001600160a01b031633146106ea5760405162461bcd60e51b815260206004820181905260248201527f4f776e61626c653a2063616c6c6572206973206e6f7420746865206f776e65726044820152606401610597565b6001600160a01b038216610e4f5760405162461bcd60e51b815260206004820152601f60248201527f45524332303a206d696e7420746f20746865207a65726f2061646472657373006044820152606401610597565b8060026000828254610e619190611179565b90915550506001600160a01b038216600081815260208181526040808320805486019055518481527fddf252ad1be2c89b69c2b068fc378daa952ba7f163c4a11628f55a4df523b3ef910160405180910390a35050565b600580546001600160a01b038381166001600160a01b0319831681179093556040519116919082907f8be0079c531659141344cd1fd0a4f28419497f9722a3daafe3b4186f6b6457e090600090a35050565b6001600160a01b038216610f6a5760405162461bcd60e51b815260206004820152602160248201527f45524332303a206275726e2066726f6d20746865207a65726f206164647265736044820152607360f81b6064820152608401610597565b6001600160a01b03821660009081526020819052604090205481811015610fde5760405162461bcd60e51b815260206004820152602260248201527f45524332303a206275726e20616d6f756e7420657863656564732062616c616e604482015261636560f01b6064820152608401610597565b6001600160a01b0383166000818152602081815260408083208686039055600280548790039055518581529192917fddf252ad1be2c89b69c2b068fc378daa952ba7f163c4a11628f55a4df523b3ef9101610b74565b80356001600160a01b038116811461104b57600080fd5b919050565b60006020828403121561106257600080fd5b61106b82611034565b9392505050565b6000806040838503121561108557600080fd5b61108e83611034565b915061109c60208401611034565b90509250929050565b6000806000606084860312156110ba57600080fd5b6110c384611034565b92506110d160208501611034565b9150604084013590509250925092565b600080604083850312156110f457600080fd5b6110fd83611034565b946020939093013593505050565b60006020828403121561111d57600080fd5b5035919050565b600060208083528351808285015260005b8181101561115157858101830151858201604001528201611135565b81811115611163576000604083870101525b50601f01601f1916929092016040019392505050565b6000821982111561118c5761118c61120d565b500190565b6000826111ae57634e487b7160e01b600052601260045260246000fd5b500490565b60008160001904831182151516156111cd576111cd61120d565b500290565b600181811c908216806111e657607f821691505b6020821081141561120757634e487b7160e01b600052602260045260246000fd5b50919050565b634e487b7160e01b600052601160045260246000fdfea264697066735822122084ea93e276f4400d5bbe2f8eb4ceb29a7d53d03ba15b08c7ed1899901cf7b81d64736f6c63430008070033",
  "linkReferences": {},
  "deployedLinkReferences": {}
}