{
  "_format": "hh-sol-artifact-1",
  "contractName": "Casino",
  "sourceName": "contracts/CasinoContract.sol",
  "abi": [
    {
      "inputs": [],
      "stateMutability": "nonpayable",
      "type": "constructor"
    },
    {
      "inputs": [],
      "name": "CHEST_FEE_PERCENTAGE",
      "outputs": [
        {
          "internalType": "uint256",
          "name": "",
          "type": "uint256"
        }
      ],
      "stateMutability": "view",
      "type": "function"
    },
    {
      "inputs": [],
      "name": "MAX_DEPOSIT_AMOUNT",
      "outputs": [
        {
          "internalType": "uint256",
          "name": "",
          "type": "uint256"
        }
      ],
      "stateMutability": "view",
      "type": "function"
    },
    {
      "inputs": [],
      "name": "MIN_DEPOSIT_AMOUNT",
      "outputs": [
        {
          "internalType": "uint256",
          "name": "",
          "type": "uint256"
        }
      ],
      "stateMutability": "view",
      "type": "function"
    },
    {
      "inputs": [],
      "name": "chest",
      "outputs": [
        {
          "internalType": "uint256",
          "name": "",
          "type": "uint256"
        }
      ],
      "stateMutability": "view",
      "type": "function"
    },
    {
      "inputs": [],
      "name": "currentRound",
      "outputs": [
        {
          "internalType": "uint256",
          "name": "capacity",
          "type": "uint256"
        },
        {
          "internalType": "uint256",
          "name": "depositedAmount",
          "type": "uint256"
        },
        {
          "internalType": "address",
          "name": "winner",
          "type": "address"
        },
        {
          "internalType": "bool",
          "name": "isActive",
          "type": "bool"
        }
      ],
      "stateMutability": "view",
      "type": "function"
    },
    {
      "inputs": [],
      "name": "deposit",
      "outputs": [],
      "stateMutability": "payable",
      "type": "function"
    },
    {
      "inputs": [],
      "name": "owner",
      "outputs": [
        {
          "internalType": "address",
          "name": "",
          "type": "address"
        }
      ],
      "stateMutability": "view",
      "type": "function"
    },
    {
      "inputs": [
        {
          "internalType": "uint256",
          "name": "capacity",
          "type": "uint256"
        }
      ],
      "name": "startNewRound",
      "outputs": [],
      "stateMutability": "nonpayable",
      "type": "function"
    },
    {
      "inputs": [],
      "name": "withdrawChest",
      "outputs": [],
      "stateMutability": "nonpayable",
      "type": "function"
    }
  ],
  "bytecode": "0x608060405234801561001057600080fd5b50600080546001600160a01b031916331781556001556004805460ff60a01b191690556106a5806100426000396000f3fe6080604052600436106100865760003560e01c80636f6a2af9116100595780636f6a2af91461010f5780638a19c8bc146101245780638da5cb5b14610189578063d0e30db0146101c1578063e2168a38146101c957600080fd5b80631ea30fef1461008b5780634615102c146100ba5780634c34a982146100dc57806364026ac0146100f9575b600080fd5b34801561009757600080fd5b506100a7678ac7230489e8000081565b6040519081526020015b60405180910390f35b3480156100c657600080fd5b506100da6100d536600461058f565b6101de565b005b3480156100e857600080fd5b506100a768056bc75e2d6310000081565b34801561010557600080fd5b506100a760015481565b34801561011b57600080fd5b506100da6102e5565b34801561013057600080fd5b506002546003546004546101589291906001600160a01b03811690600160a01b900460ff1684565b6040516100b1949392919093845260208401929092526001600160a01b031660408301521515606082015260800190565b34801561019557600080fd5b506000546101a9906001600160a01b031681565b6040516001600160a01b0390911681526020016100b1565b6100da6103a1565b3480156101d557600080fd5b506100a7601481565b6000546001600160a01b031633146102115760405162461bcd60e51b8152600401610208906105a8565b60405180910390fd5b600454600160a01b900460ff161561026b5760405162461bcd60e51b815260206004820152601d60248201527f43757272656e7420726f756e64206973207374696c6c206163746976650000006044820152606401610208565b600081116102c55760405162461bcd60e51b815260206004820152602160248201527f43617061636974792073686f756c642062652067726561746572207468616e206044820152600360fc1b6064820152608401610208565b6002556000600355600480546001600160a81b031916600160a01b179055565b6000546001600160a01b0316331461030f5760405162461bcd60e51b8152600401610208906105a8565b6000600154116103595760405162461bcd60e51b8152602060048201526015602482015274139bc818da1a5c1cc81a5b881d1a194818da195cdd605a1b6044820152606401610208565b60018054600091829055815460405191926001600160a01b039091169183156108fc0291849190818181858888f1935050505015801561039d573d6000803e3d6000fd5b5050565b600454600160a01b900460ff166103fa5760405162461bcd60e51b815260206004820152601d60248201527f4e6f2061637469766520726f756e6420617420746865206d6f6d656e740000006044820152606401610208565b6002546003541061044d5760405162461bcd60e51b815260206004820152601e60248201527f526f756e6420636170616369747920616c7265616479207265616368656400006044820152606401610208565b678ac7230489e80000341015801561046e575068056bc75e2d631000003411155b6104cf5760405162461bcd60e51b815260206004820152602c60248201527f4465706f73697420616d6f756e742073686f756c64206265206265747765656e60448201526b040dad2dc40c2dcc840dac2f60a31b6064820152608401610208565b34600260010160008282546104e491906105e9565b9091555050600254600354141561058d57600480546001600160a81b0319163317905560006064610516601482610642565b6003546105239190610623565b61052d9190610601565b90506000816002600101546105429190610642565b604051909150339083156108fc029084906000818181858888f19350505050158015610572573d6000803e3d6000fd5b50806001600082825461058591906105e9565b909155505050505b565b6000602082840312156105a157600080fd5b5035919050565b60208082526021908201527f4f6e6c79206f776e65722063616e2063616c6c20746869732066756e6374696f6040820152603760f91b606082015260800190565b600082198211156105fc576105fc610659565b500190565b60008261061e57634e487b7160e01b600052601260045260246000fd5b500490565b600081600019048311821515161561063d5761063d610659565b500290565b60008282101561065457610654610659565b500390565b634e487b7160e01b600052601160045260246000fdfea2646970667358221220cdb49341a39e92bef7abbcd3303e874dc07d7c8e83b2cee515c75f97ba70cb7364736f6c63430008070033",
  "linkReferences": {},
  "deployedLinkReferences": {}
}